{
  "_format": "hh-sol-artifact-1",
  "contractName": "DogNStyleNFT",
  "sourceName": "contracts/DogNStyleNFT.sol",
  "abi": [
    {
      "inputs": [],
      "stateMutability": "nonpayable",
      "type": "constructor"
    },
    {
      "anonymous": false,
      "inputs": [
        {
          "indexed": true,
          "internalType": "address",
          "name": "owner",
          "type": "address"
        },
        {
          "indexed": true,
          "internalType": "address",
          "name": "approved",
          "type": "address"
        },
        {
          "indexed": true,
          "internalType": "uint256",
          "name": "tokenId",
          "type": "uint256"
        }
      ],
      "name": "Approval",
      "type": "event"
    },
    {
      "anonymous": false,
      "inputs": [
        {
          "indexed": true,
          "internalType": "address",
          "name": "owner",
          "type": "address"
        },
        {
          "indexed": true,
          "internalType": "address",
          "name": "operator",
          "type": "address"
        },
        {
          "indexed": false,
          "internalType": "bool",
          "name": "approved",
          "type": "bool"
        }
      ],
      "name": "ApprovalForAll",
      "type": "event"
    },
    {
      "anonymous": false,
      "inputs": [
        {
          "indexed": false,
          "internalType": "address",
          "name": "sender",
          "type": "address"
        },
        {
          "indexed": false,
          "internalType": "uint256",
          "name": "tokenId",
          "type": "uint256"
        }
      ],
      "name": "NewDogNFTTMinted",
      "type": "event"
    },
    {
      "anonymous": false,
      "inputs": [
        {
          "indexed": true,
          "internalType": "address",
          "name": "from",
          "type": "address"
        },
        {
          "indexed": true,
          "internalType": "address",
          "name": "to",
          "type": "address"
        },
        {
          "indexed": true,
          "internalType": "uint256",
          "name": "tokenId",
          "type": "uint256"
        }
      ],
      "name": "Transfer",
      "type": "event"
    },
    {
      "inputs": [
        {
          "internalType": "address",
          "name": "to",
          "type": "address"
        },
        {
          "internalType": "uint256",
          "name": "tokenId",
          "type": "uint256"
        }
      ],
      "name": "approve",
      "outputs": [],
      "stateMutability": "nonpayable",
      "type": "function"
    },
    {
      "inputs": [
        {
          "internalType": "address",
          "name": "owner",
          "type": "address"
        }
      ],
      "name": "balanceOf",
      "outputs": [
        {
          "internalType": "uint256",
          "name": "",
          "type": "uint256"
        }
      ],
      "stateMutability": "view",
      "type": "function"
    },
    {
      "inputs": [
        {
          "internalType": "uint256",
          "name": "tokenId",
          "type": "uint256"
        }
      ],
      "name": "getApproved",
      "outputs": [
        {
          "internalType": "address",
          "name": "",
          "type": "address"
        }
      ],
      "stateMutability": "view",
      "type": "function"
    },
    {
      "inputs": [],
      "name": "getTotalNFTMinted",
      "outputs": [
        {
          "internalType": "uint256",
          "name": "",
          "type": "uint256"
        }
      ],
      "stateMutability": "view",
      "type": "function"
    },
    {
      "inputs": [
        {
          "internalType": "address",
          "name": "owner",
          "type": "address"
        },
        {
          "internalType": "address",
          "name": "operator",
          "type": "address"
        }
      ],
      "name": "isApprovedForAll",
      "outputs": [
        {
          "internalType": "bool",
          "name": "",
          "type": "bool"
        }
      ],
      "stateMutability": "view",
      "type": "function"
    },
    {
      "inputs": [],
      "name": "makeDogNStyleNFT",
      "outputs": [],
      "stateMutability": "nonpayable",
      "type": "function"
    },
    {
      "inputs": [],
      "name": "name",
      "outputs": [
        {
          "internalType": "string",
          "name": "",
          "type": "string"
        }
      ],
      "stateMutability": "view",
      "type": "function"
    },
    {
      "inputs": [
        {
          "internalType": "uint256",
          "name": "tokenId",
          "type": "uint256"
        }
      ],
      "name": "ownerOf",
      "outputs": [
        {
          "internalType": "address",
          "name": "",
          "type": "address"
        }
      ],
      "stateMutability": "view",
      "type": "function"
    },
    {
      "inputs": [
        {
          "internalType": "uint256",
          "name": "tokenId",
          "type": "uint256"
        }
      ],
      "name": "pickEarColor",
      "outputs": [
        {
          "internalType": "uint256",
          "name": "",
          "type": "uint256"
        }
      ],
      "stateMutability": "view",
      "type": "function"
    },
    {
      "inputs": [
        {
          "internalType": "uint256",
          "name": "tokenId",
          "type": "uint256"
        }
      ],
      "name": "pickLightSkinColor",
      "outputs": [
        {
          "internalType": "uint256",
          "name": "",
          "type": "uint256"
        }
      ],
      "stateMutability": "view",
      "type": "function"
    },
    {
      "inputs": [
        {
          "internalType": "uint256",
          "name": "tokenId",
          "type": "uint256"
        }
      ],
      "name": "pickSkinColor",
      "outputs": [
        {
          "internalType": "uint256",
          "name": "",
          "type": "uint256"
        }
      ],
      "stateMutability": "view",
      "type": "function"
    },
    {
      "inputs": [
        {
          "internalType": "address",
          "name": "from",
          "type": "address"
        },
        {
          "internalType": "address",
          "name": "to",
          "type": "address"
        },
        {
          "internalType": "uint256",
          "name": "tokenId",
          "type": "uint256"
        }
      ],
      "name": "safeTransferFrom",
      "outputs": [],
      "stateMutability": "nonpayable",
      "type": "function"
    },
    {
      "inputs": [
        {
          "internalType": "address",
          "name": "from",
          "type": "address"
        },
        {
          "internalType": "address",
          "name": "to",
          "type": "address"
        },
        {
          "internalType": "uint256",
          "name": "tokenId",
          "type": "uint256"
        },
        {
          "internalType": "bytes",
          "name": "_data",
          "type": "bytes"
        }
      ],
      "name": "safeTransferFrom",
      "outputs": [],
      "stateMutability": "nonpayable",
      "type": "function"
    },
    {
      "inputs": [
        {
          "internalType": "address",
          "name": "operator",
          "type": "address"
        },
        {
          "internalType": "bool",
          "name": "approved",
          "type": "bool"
        }
      ],
      "name": "setApprovalForAll",
      "outputs": [],
      "stateMutability": "nonpayable",
      "type": "function"
    },
    {
      "inputs": [
        {
          "internalType": "bytes4",
          "name": "interfaceId",
          "type": "bytes4"
        }
      ],
      "name": "supportsInterface",
      "outputs": [
        {
          "internalType": "bool",
          "name": "",
          "type": "bool"
        }
      ],
      "stateMutability": "view",
      "type": "function"
    },
    {
      "inputs": [],
      "name": "symbol",
      "outputs": [
        {
          "internalType": "string",
          "name": "",
          "type": "string"
        }
      ],
      "stateMutability": "view",
      "type": "function"
    },
    {
      "inputs": [
        {
          "internalType": "uint256",
          "name": "tokenId",
          "type": "uint256"
        }
      ],
      "name": "tokenURI",
      "outputs": [
        {
          "internalType": "string",
          "name": "",
          "type": "string"
        }
      ],
      "stateMutability": "view",
      "type": "function"
    },
    {
      "inputs": [
        {
          "internalType": "address",
          "name": "from",
          "type": "address"
        },
        {
          "internalType": "address",
          "name": "to",
          "type": "address"
        },
        {
          "internalType": "uint256",
          "name": "tokenId",
          "type": "uint256"
        }
      ],
      "name": "transferFrom",
      "outputs": [],
      "stateMutability": "nonpayable",
      "type": "function"
    }
  ],
  "bytecode": "0x60806040526040518061038001604052806103608152602001620054bb6103609139600890805190602001906200003892919062000826565b5060405180610120016040528060ed81526020016200499560ed9139600990805190602001906200006b92919062000826565b506040518060e0016040528060b08152602001620051aa60b09139600a90805190602001906200009d92919062000826565b5060405180610160016040528061012481526020016200474c6101249139600b9080519060200190620000d292919062000826565b50604051806102a00160405280610271815260200162004f396102719139600c90805190602001906200010792919062000826565b5060405180610180016040528061015f815260200162004b6f61015f9139600d90805190602001906200013c92919062000826565b5060405180610140016040528061010481526020016200525a6101049139600e90805190602001906200017192919062000826565b5060405180610120016040528060ed815260200162004a8260ed9139600f9080519060200190620001a492919062000826565b506040518060e0016040528060ae81526020016200581b60ae913960109080519060200190620001d692919062000826565b506040518061016001604052806101258152602001620048706101259139601190805190602001906200020b92919062000826565b50604051806102a0016040528061026b815260200162004cce61026b9139601290805190602001906200024092919062000826565b5060405180610180016040528061015d81526020016200535e61015d9139601390805190602001906200027592919062000826565b5060405180608001604052806040518060400160405280600781526020017f233563643131390000000000000000000000000000000000000000000000000081525081526020016040518060400160405280600781526020017f236266316564380000000000000000000000000000000000000000000000000081525081526020016040518060400160405280600781526020017f233139636364360000000000000000000000000000000000000000000000000081525081526020016040518060400160405280600781526020017f236433333031370000000000000000000000000000000000000000000000000081525081525060149060046200037d929190620008b7565b5060405180608001604052806040518060400160405280600781526020017f233733453833310000000000000000000000000000000000000000000000000081525081526020016040518060400160405280600781526020017f236431336565380000000000000000000000000000000000000000000000000081525081526020016040518060400160405280600781526020017f233263646565380000000000000000000000000000000000000000000000000081525081526020016040518060400160405280600781526020017f2364643435326500000000000000000000000000000000000000000000000000815250815250601590600462000485929190620008b7565b5060405180608001604052806040518060400160405280600781526020017f233763353132660000000000000000000000000000000000000000000000000081525081526020016040518060400160405280600781526020017f236334383332310000000000000000000000000000000000000000000000000081525081526020016040518060400160405280600781526020017f233664343330350000000000000000000000000000000000000000000000000081525081526020016040518060400160405280600781526020017f233338323931330000000000000000000000000000000000000000000000000081525081525060169060046200058d929190620008b7565b5060405180606001604052806040518060400160405280600781526020017f236635663164620000000000000000000000000000000000000000000000000081525081526020016040518060400160405280600781526020017f236433626139340000000000000000000000000000000000000000000000000081525081526020016040518060400160405280600781526020017f236339633162350000000000000000000000000000000000000000000000000081525081525060179060036200065a9291906200091e565b503480156200066857600080fd5b506040518060400160405280600c81526020017f446f67206e27205374796c6500000000000000000000000000000000000000008152506040518060400160405280600981526020017f444f474e5354594c4500000000000000000000000000000000000000000000008152508160009080519060200190620006ed92919062000826565b5080600190805190602001906200070692919062000826565b505050620007546040518060400160405280601e81526020017f54686973206973206d79204e465420636f6e74726163742e20576f61682100008152506200075a60201b620013ca1760201c565b62000b3f565b620007fa8160405160240162000771919062000a53565b6040516020818303038152906040527f41304fac000000000000000000000000000000000000000000000000000000007bffffffffffffffffffffffffffffffffffffffffffffffffffffffff19166020820180517bffffffffffffffffffffffffffffffffffffffffffffffffffffffff8381831617835250505050620007fd60201b60201c565b50565b60008151905060006a636f6e736f6c652e6c6f679050602083016000808483855afa5050505050565b828054620008349062000ac9565b90600052602060002090601f016020900481019282620008585760008555620008a4565b82601f106200087357805160ff1916838001178555620008a4565b82800160010185558215620008a4579182015b82811115620008a357825182559160200191906001019062000886565b5b509050620008b3919062000985565b5090565b8280548282559060005260206000209081019282156200090b579160200282015b828111156200090a578251829080519060200190620008f992919062000826565b5091602001919060010190620008d8565b5b5090506200091a9190620009a4565b5090565b82805482825590600052602060002090810192821562000972579160200282015b82811115620009715782518290805190602001906200096092919062000826565b50916020019190600101906200093f565b5b509050620009819190620009a4565b5090565b5b80821115620009a057600081600090555060010162000986565b5090565b5b80821115620009c85760008181620009be9190620009cc565b50600101620009a5565b5090565b508054620009da9062000ac9565b6000825580601f10620009ee575062000a0f565b601f01602090049060005260206000209081019062000a0e919062000985565b5b50565b600062000a1f8262000a77565b62000a2b818562000a82565b935062000a3d81856020860162000a93565b62000a488162000b2e565b840191505092915050565b6000602082019050818103600083015262000a6f818462000a12565b905092915050565b600081519050919050565b600082825260208201905092915050565b60005b8381101562000ab357808201518184015260208101905062000a96565b8381111562000ac3576000848401525b50505050565b6000600282049050600182168062000ae257607f821691505b6020821081141562000af95762000af862000aff565b5b50919050565b7f4e487b7100000000000000000000000000000000000000000000000000000000600052602260045260246000fd5b6000601f19601f8301169050919050565b613bfd8062000b4f6000396000f3fe608060405234801561001057600080fd5b50600436106101165760003560e01c806395d89b41116100a2578063afabcdaf11610071578063afabcdaf146102df578063b88d4fde1461030f578063c87b56dd1461032b578063ca55b6711461035b578063e985e9c51461038b57610116565b806395d89b4114610257578063986f5be2146102755780639b0dd49614610293578063a22cb465146102c357610116565b8063095ea7b3116100e9578063095ea7b3146101a357806323b872dd146101bf57806342842e0e146101db5780636352211e146101f757806370a082311461022757610116565b806301ffc9a71461011b57806304e5da5c1461014b57806306fdde0314610155578063081812fc14610173575b600080fd5b6101356004803603810190610130919061265d565b6103bb565b6040516101429190613453565b60405180910390f35b61015361049d565b005b61015d610a50565b60405161016a919061346e565b60405180910390f35b61018d600480360381019061018891906126af565b610ae2565b60405161019a91906133c3565b60405180910390f35b6101bd60048036038101906101b89190612621565b610b67565b005b6101d960048036038101906101d4919061251b565b610c7f565b005b6101f560048036038101906101f0919061251b565b610cdf565b005b610211600480360381019061020c91906126af565b610cff565b60405161021e91906133c3565b60405180910390f35b610241600480360381019061023c91906124b6565b610db1565b60405161024e91906136ee565b60405180910390f35b61025f610e69565b60405161026c919061346e565b60405180910390f35b61027d610efb565b60405161028a91906136ee565b60405180910390f35b6102ad60048036038101906102a891906126af565b610f11565b6040516102ba91906136ee565b60405180910390f35b6102dd60048036038101906102d891906125e5565b610f62565b005b6102f960048036038101906102f491906126af565b6110e3565b60405161030691906136ee565b60405180910390f35b6103296004803603810190610324919061256a565b611134565b005b610345600480360381019061034091906126af565b611196565b604051610352919061346e565b60405180910390f35b610375600480360381019061037091906126af565b6112e8565b60405161038291906136ee565b60405180910390f35b6103a560048036038101906103a091906124df565b611336565b6040516103b29190613453565b60405180910390f35b60007f80ac58cd000000000000000000000000000000000000000000000000000000007bffffffffffffffffffffffffffffffffffffffffffffffffffffffff1916827bffffffffffffffffffffffffffffffffffffffffffffffffffffffff1916148061048657507f5b5e139f000000000000000000000000000000000000000000000000000000007bffffffffffffffffffffffffffffffffffffffffffffffffffffffff1916827bffffffffffffffffffffffffffffffffffffffffffffffffffffffff1916145b80610496575061049582611463565b5b9050919050565b60006104a960076114cd565b905060326001826104ba91906137c2565b11156104fb576040517f08c379a00000000000000000000000000000000000000000000000000000000081526004016104f2906134ee565b60405180910390fd5b6000610506826112e8565b9050600061051383610f11565b90506000610520846110e3565b905060006015848154811061055e577f4e487b7100000000000000000000000000000000000000000000000000000000600052603260045260246000fd5b9060005260206000200180546105739061398d565b80601f016020809104026020016040519081016040528092919081815260200182805461059f9061398d565b80156105ec5780601f106105c1576101008083540402835291602001916105ec565b820191906000526020600020905b8154815290600101906020018083116105cf57829003601f168201915b5050505050905060006014858154811061062f577f4e487b7100000000000000000000000000000000000000000000000000000000600052603260045260246000fd5b9060005260206000200180546106449061398d565b80601f01602080910402602001604051908101604052809291908181526020018280546106709061398d565b80156106bd5780601f10610692576101008083540402835291602001916106bd565b820191906000526020600020905b8154815290600101906020018083116106a057829003601f168201915b50505050509050600060168581548110610700577f4e487b7100000000000000000000000000000000000000000000000000000000600052603260045260246000fd5b9060005260206000200180546107159061398d565b80601f01602080910402602001604051908101604052809291908181526020018280546107419061398d565b801561078e5780601f106107635761010080835404028352916020019161078e565b820191906000526020600020905b81548152906001019060200180831161077157829003601f168201915b505050505090506000601785815481106107d1577f4e487b7100000000000000000000000000000000000000000000000000000000600052603260045260246000fd5b9060005260206000200180546107e69061398d565b80601f01602080910402602001604051908101604052809291908181526020018280546108129061398d565b801561085f5780601f106108345761010080835404028352916020019161085f565b820191906000526020600020905b81548152906001019060200180831161084257829003601f168201915b505050505090506000600885600986600a87600b88600c8b600d8f6040516020016108959c9b9a999897969594939291906131ff565b60405160208183030381529060405290506000600e86600f8760108860118960128c6040516020016108d09a99989796959493929190613173565b604051602081830303815290604052905060006013876040516020016108f79291906132a5565b6040516020818303038152906040529050600083838360405160200161091f93929190613142565b6040516020818303038152906040529050600061099761094a60018f61094591906137c2565b6114db565b60405160200161095a919061335d565b60405160208183030381529060405261097284611688565b604051602001610983929190613318565b604051602081830303815290604052611688565b90506000816040516020016109ac91906133a1565b60405160208183030381529060405290506109c6816113ca565b6109d0338f611846565b6109da8e82611864565b6109e460076118d8565b610a07604051806060016040528060258152602001613b63602591398f336118ee565b7f34dc99ac46edf1cdd49f126796ee98092526f11b1535a183cbf96f5920850a1d338f604051610a3892919061342a565b60405180910390a15050505050505050505050505050565b606060008054610a5f9061398d565b80601f0160208091040260200160405190810160405280929190818152602001828054610a8b9061398d565b8015610ad85780601f10610aad57610100808354040283529160200191610ad8565b820191906000526020600020905b815481529060010190602001808311610abb57829003601f168201915b5050505050905090565b6000610aed8261198d565b610b2c576040517f08c379a0000000000000000000000000000000000000000000000000000000008152600401610b239061364e565b60405180910390fd5b6004600083815260200190815260200160002060009054906101000a900473ffffffffffffffffffffffffffffffffffffffff169050919050565b6000610b7282610cff565b90508073ffffffffffffffffffffffffffffffffffffffff168373ffffffffffffffffffffffffffffffffffffffff161415610be3576040517f08c379a0000000000000000000000000000000000000000000000000000000008152600401610bda906136ae565b60405180910390fd5b8073ffffffffffffffffffffffffffffffffffffffff16610c026119f9565b73ffffffffffffffffffffffffffffffffffffffff161480610c315750610c3081610c2b6119f9565b611336565b5b610c70576040517f08c379a0000000000000000000000000000000000000000000000000000000008152600401610c679061358e565b60405180910390fd5b610c7a8383611a01565b505050565b610c90610c8a6119f9565b82611aba565b610ccf576040517f08c379a0000000000000000000000000000000000000000000000000000000008152600401610cc6906136ce565b60405180910390fd5b610cda838383611b98565b505050565b610cfa83838360405180602001604052806000815250611134565b505050565b6000806002600084815260200190815260200160002060009054906101000a900473ffffffffffffffffffffffffffffffffffffffff169050600073ffffffffffffffffffffffffffffffffffffffff168173ffffffffffffffffffffffffffffffffffffffff161415610da8576040517f08c379a0000000000000000000000000000000000000000000000000000000008152600401610d9f906135ce565b60405180910390fd5b80915050919050565b60008073ffffffffffffffffffffffffffffffffffffffff168273ffffffffffffffffffffffffffffffffffffffff161415610e22576040517f08c379a0000000000000000000000000000000000000000000000000000000008152600401610e19906135ae565b60405180910390fd5b600360008373ffffffffffffffffffffffffffffffffffffffff1673ffffffffffffffffffffffffffffffffffffffff168152602001908152602001600020549050919050565b606060018054610e789061398d565b80601f0160208091040260200160405190810160405280929190818152602001828054610ea49061398d565b8015610ef15780601f10610ec657610100808354040283529160200191610ef1565b820191906000526020600020905b815481529060010190602001808311610ed457829003601f168201915b5050505050905090565b600080610f0860076114cd565b90508091505090565b600080610f44610f20846114db565b604051602001610f3091906132f6565b604051602081830303815290604052611df4565b905060168054905081610f579190613a08565b905080915050919050565b610f6a6119f9565b73ffffffffffffffffffffffffffffffffffffffff168273ffffffffffffffffffffffffffffffffffffffff161415610fd8576040517f08c379a0000000000000000000000000000000000000000000000000000000008152600401610fcf9061354e565b60405180910390fd5b8060056000610fe56119f9565b73ffffffffffffffffffffffffffffffffffffffff1673ffffffffffffffffffffffffffffffffffffffff16815260200190815260200160002060008473ffffffffffffffffffffffffffffffffffffffff1673ffffffffffffffffffffffffffffffffffffffff16815260200190815260200160002060006101000a81548160ff0219169083151502179055508173ffffffffffffffffffffffffffffffffffffffff166110926119f9565b73ffffffffffffffffffffffffffffffffffffffff167f17307eab39ab6107e8899845ad3d59bd9653f200f220920489ca2b5937696c31836040516110d79190613453565b60405180910390a35050565b6000806111166110f2846114db565b60405160200161110291906132d4565b604051602081830303815290604052611df4565b9050601780549050816111299190613a08565b905080915050919050565b61114561113f6119f9565b83611aba565b611184576040517f08c379a000000000000000000000000000000000000000000000000000000000815260040161117b906136ce565b60405180910390fd5b61119084848484611e27565b50505050565b60606111a18261198d565b6111e0576040517f08c379a00000000000000000000000000000000000000000000000000000000081526004016111d79061362e565b60405180910390fd5b60006006600084815260200190815260200160002080546112009061398d565b80601f016020809104026020016040519081016040528092919081815260200182805461122c9061398d565b80156112795780601f1061124e57610100808354040283529160200191611279565b820191906000526020600020905b81548152906001019060200180831161125c57829003601f168201915b50505050509050600061128a611e83565b90506000815114156112a05781925050506112e3565b6000825111156112d55780826040516020016112bd92919061311e565b604051602081830303815290604052925050506112e3565b6112de84611e9a565b925050505b919050565b60008061131b6112f7846114db565b604051602001611307919061337f565b604051602081830303815290604052611df4565b90506015805490508161132e9190613a08565b915050919050565b6000600560008473ffffffffffffffffffffffffffffffffffffffff1673ffffffffffffffffffffffffffffffffffffffff16815260200190815260200160002060008373ffffffffffffffffffffffffffffffffffffffff1673ffffffffffffffffffffffffffffffffffffffff16815260200190815260200160002060009054906101000a900460ff16905092915050565b611460816040516024016113de919061346e565b6040516020818303038152906040527f41304fac000000000000000000000000000000000000000000000000000000007bffffffffffffffffffffffffffffffffffffffffffffffffffffffff19166020820180517bffffffffffffffffffffffffffffffffffffffffffffffffffffffff8381831617835250505050611f41565b50565b60007f01ffc9a7000000000000000000000000000000000000000000000000000000007bffffffffffffffffffffffffffffffffffffffffffffffffffffffff1916827bffffffffffffffffffffffffffffffffffffffffffffffffffffffff1916149050919050565b600081600001549050919050565b60606000821415611523576040518060400160405280600181526020017f30000000000000000000000000000000000000000000000000000000000000008152509050611683565b600082905060005b6000821461155557808061153e906139bf565b915050600a8261154e9190613818565b915061152b565b60008167ffffffffffffffff811115611597577f4e487b7100000000000000000000000000000000000000000000000000000000600052604160045260246000fd5b6040519080825280601f01601f1916602001820160405280156115c95781602001600182028036833780820191505090505b5090505b6000851461167c576001826115e291906138a3565b9150600a856115f19190613a08565b60306115fd91906137c2565b60f81b818381518110611639577f4e487b7100000000000000000000000000000000000000000000000000000000600052603260045260246000fd5b60200101907effffffffffffffffffffffffffffffffffffffffffffffffffffffffffffff1916908160001a905350600a856116759190613818565b94506115cd565b8093505050505b919050565b606060008251905060008114156116b15760405180602001604052806000815250915050611841565b600060036002836116c291906137c2565b6116cc9190613818565b60046116d89190613849565b905060006020826116e991906137c2565b67ffffffffffffffff811115611728577f4e487b7100000000000000000000000000000000000000000000000000000000600052604160045260246000fd5b6040519080825280601f01601f19166020018201604052801561175a5781602001600182028036833780820191505090505b5090506000604051806060016040528060408152602001613b88604091399050600181016020830160005b868110156117fe5760038101905062ffffff818a015116603f8160121c168401518060081b905060ff603f83600c1c1686015116810190508060081b905060ff603f8360061c1686015116810190508060081b905060ff603f831686015116810190508060e01b90508084526004840193505050611785565b506003860660018114611818576002811461182857611833565b613d3d60f01b6002830352611833565b603d60f81b60018303525b508484525050819450505050505b919050565b611860828260405180602001604052806000815250611f6a565b5050565b61186d8261198d565b6118ac576040517f08c379a00000000000000000000000000000000000000000000000000000000081526004016118a3906135ee565b60405180910390fd5b806006600084815260200190815260200160002090805190602001906118d3929190612342565b505050565b6001816000016000828254019250508190555050565b61198883838360405160240161190693929190613490565b6040516020818303038152906040527fe3849f79000000000000000000000000000000000000000000000000000000007bffffffffffffffffffffffffffffffffffffffffffffffffffffffff19166020820180517bffffffffffffffffffffffffffffffffffffffffffffffffffffffff8381831617835250505050611f41565b505050565b60008073ffffffffffffffffffffffffffffffffffffffff166002600084815260200190815260200160002060009054906101000a900473ffffffffffffffffffffffffffffffffffffffff1673ffffffffffffffffffffffffffffffffffffffff1614159050919050565b600033905090565b816004600083815260200190815260200160002060006101000a81548173ffffffffffffffffffffffffffffffffffffffff021916908373ffffffffffffffffffffffffffffffffffffffff160217905550808273ffffffffffffffffffffffffffffffffffffffff16611a7483610cff565b73ffffffffffffffffffffffffffffffffffffffff167f8c5be1e5ebec7d5bd14f71427d1e84f3dd0314c0f7b2291e5b200ac8c7c3b92560405160405180910390a45050565b6000611ac58261198d565b611b04576040517f08c379a0000000000000000000000000000000000000000000000000000000008152600401611afb9061356e565b60405180910390fd5b6000611b0f83610cff565b90508073ffffffffffffffffffffffffffffffffffffffff168473ffffffffffffffffffffffffffffffffffffffff161480611b7e57508373ffffffffffffffffffffffffffffffffffffffff16611b6684610ae2565b73ffffffffffffffffffffffffffffffffffffffff16145b80611b8f5750611b8e8185611336565b5b91505092915050565b8273ffffffffffffffffffffffffffffffffffffffff16611bb882610cff565b73ffffffffffffffffffffffffffffffffffffffff1614611c0e576040517f08c379a0000000000000000000000000000000000000000000000000000000008152600401611c059061366e565b60405180910390fd5b600073ffffffffffffffffffffffffffffffffffffffff168273ffffffffffffffffffffffffffffffffffffffff161415611c7e576040517f08c379a0000000000000000000000000000000000000000000000000000000008152600401611c759061352e565b60405180910390fd5b611c89838383611fc5565b611c94600082611a01565b6001600360008573ffffffffffffffffffffffffffffffffffffffff1673ffffffffffffffffffffffffffffffffffffffff1681526020019081526020016000206000828254611ce491906138a3565b925050819055506001600360008473ffffffffffffffffffffffffffffffffffffffff1673ffffffffffffffffffffffffffffffffffffffff1681526020019081526020016000206000828254611d3b91906137c2565b92505081905550816002600083815260200190815260200160002060006101000a81548173ffffffffffffffffffffffffffffffffffffffff021916908373ffffffffffffffffffffffffffffffffffffffff160217905550808273ffffffffffffffffffffffffffffffffffffffff168473ffffffffffffffffffffffffffffffffffffffff167fddf252ad1be2c89b69c2b068fc378daa952ba7f163c4a11628f55a4df523b3ef60405160405180910390a4505050565b600081604051602001611e079190613107565b6040516020818303038152906040528051906020012060001c9050919050565b611e32848484611b98565b611e3e84848484611fca565b611e7d576040517f08c379a0000000000000000000000000000000000000000000000000000000008152600401611e74906134ce565b60405180910390fd5b50505050565b606060405180602001604052806000815250905090565b6060611ea58261198d565b611ee4576040517f08c379a0000000000000000000000000000000000000000000000000000000008152600401611edb9061368e565b60405180910390fd5b6000611eee611e83565b90506000815111611f0e5760405180602001604052806000815250611f39565b80611f18846114db565b604051602001611f2992919061311e565b6040516020818303038152906040525b915050919050565b60008151905060006a636f6e736f6c652e6c6f679050602083016000808483855afa5050505050565b611f748383612161565b611f816000848484611fca565b611fc0576040517f08c379a0000000000000000000000000000000000000000000000000000000008152600401611fb7906134ce565b60405180910390fd5b505050565b505050565b6000611feb8473ffffffffffffffffffffffffffffffffffffffff1661232f565b15612154578373ffffffffffffffffffffffffffffffffffffffff1663150b7a026120146119f9565b8786866040518563ffffffff1660e01b815260040161203694939291906133de565b602060405180830381600087803b15801561205057600080fd5b505af192505050801561208157506040513d601f19601f8201168201806040525081019061207e9190612686565b60015b612104573d80600081146120b1576040519150601f19603f3d011682016040523d82523d6000602084013e6120b6565b606091505b506000815114156120fc576040517f08c379a00000000000000000000000000000000000000000000000000000000081526004016120f3906134ce565b60405180910390fd5b805181602001fd5b63150b7a0260e01b7bffffffffffffffffffffffffffffffffffffffffffffffffffffffff1916817bffffffffffffffffffffffffffffffffffffffffffffffffffffffff191614915050612159565b600190505b949350505050565b600073ffffffffffffffffffffffffffffffffffffffff168273ffffffffffffffffffffffffffffffffffffffff1614156121d1576040517f08c379a00000000000000000000000000000000000000000000000000000000081526004016121c89061360e565b60405180910390fd5b6121da8161198d565b1561221a576040517f08c379a00000000000000000000000000000000000000000000000000000000081526004016122119061350e565b60405180910390fd5b61222660008383611fc5565b6001600360008473ffffffffffffffffffffffffffffffffffffffff1673ffffffffffffffffffffffffffffffffffffffff168152602001908152602001600020600082825461227691906137c2565b92505081905550816002600083815260200190815260200160002060006101000a81548173ffffffffffffffffffffffffffffffffffffffff021916908373ffffffffffffffffffffffffffffffffffffffff160217905550808273ffffffffffffffffffffffffffffffffffffffff16600073ffffffffffffffffffffffffffffffffffffffff167fddf252ad1be2c89b69c2b068fc378daa952ba7f163c4a11628f55a4df523b3ef60405160405180910390a45050565b600080823b905060008111915050919050565b82805461234e9061398d565b90600052602060002090601f01602090048101928261237057600085556123b7565b82601f1061238957805160ff19168380011785556123b7565b828001600101855582156123b7579182015b828111156123b657825182559160200191906001019061239b565b5b5090506123c491906123c8565b5090565b5b808211156123e15760008160009055506001016123c9565b5090565b60006123f86123f38461373a565b613709565b90508281526020810184848401111561241057600080fd5b61241b84828561394b565b509392505050565b60008135905061243281613b06565b92915050565b60008135905061244781613b1d565b92915050565b60008135905061245c81613b34565b92915050565b60008151905061247181613b34565b92915050565b600082601f83011261248857600080fd5b81356124988482602086016123e5565b91505092915050565b6000813590506124b081613b4b565b92915050565b6000602082840312156124c857600080fd5b60006124d684828501612423565b91505092915050565b600080604083850312156124f257600080fd5b600061250085828601612423565b925050602061251185828601612423565b9150509250929050565b60008060006060848603121561253057600080fd5b600061253e86828701612423565b935050602061254f86828701612423565b9250506040612560868287016124a1565b9150509250925092565b6000806000806080858703121561258057600080fd5b600061258e87828801612423565b945050602061259f87828801612423565b93505060406125b0878288016124a1565b925050606085013567ffffffffffffffff8111156125cd57600080fd5b6125d987828801612477565b91505092959194509250565b600080604083850312156125f857600080fd5b600061260685828601612423565b925050602061261785828601612438565b9150509250929050565b6000806040838503121561263457600080fd5b600061264285828601612423565b9250506020612653858286016124a1565b9150509250929050565b60006020828403121561266f57600080fd5b600061267d8482850161244d565b91505092915050565b60006020828403121561269857600080fd5b60006126a684828501612462565b91505092915050565b6000602082840312156126c157600080fd5b60006126cf848285016124a1565b91505092915050565b6126e1816138d7565b82525050565b6126f0816138e9565b82525050565b60006127018261377f565b61270b8185613795565b935061271b81856020860161395a565b61272481613af5565b840191505092915050565b600061273a8261378a565b61274481856137a6565b935061275481856020860161395a565b61275d81613af5565b840191505092915050565b60006127738261378a565b61277d81856137b7565b935061278d81856020860161395a565b80840191505092915050565b600081546127a68161398d565b6127b081866137b7565b945060018216600081146127cb57600181146127dc5761280f565b60ff1983168652818601935061280f565b6127e58561376a565b60005b83811015612807578154818901526001820191506020810190506127e8565b838801955050505b50505092915050565b6000612825600e836137b7565b91507f54484952444f494f495f574f52440000000000000000000000000000000000006000830152600e82019050919050565b60006128656032836137a6565b91507f4552433732313a207472616e7366657220746f206e6f6e20455243373231526560008301527f63656976657220696d706c656d656e74657200000000000000000000000000006020830152604082019050919050565b60006128cb6021836137a6565b91507f596f752063616e6e6f74206d696e74206d6f7265207468616e20353020646f6760008301527f73000000000000000000000000000000000000000000000000000000000000006020830152604082019050919050565b6000612931601c836137a6565b91507f4552433732313a20746f6b656e20616c7265616479206d696e746564000000006000830152602082019050919050565b60006129716024836137a6565b91507f4552433732313a207472616e7366657220746f20746865207a65726f2061646460008301527f72657373000000000000000000000000000000000000000000000000000000006020830152604082019050919050565b60006129d76019836137a6565b91507f4552433732313a20617070726f766520746f2063616c6c6572000000000000006000830152602082019050919050565b6000612a17600b836137b7565b91507f5345434f4e445f574f52440000000000000000000000000000000000000000006000830152600b82019050919050565b6000612a57602c836137a6565b91507f4552433732313a206f70657261746f7220717565727920666f72206e6f6e657860008301527f697374656e7420746f6b656e00000000000000000000000000000000000000006020830152604082019050919050565b6000612abd6038836137a6565b91507f4552433732313a20617070726f76652063616c6c6572206973206e6f74206f7760008301527f6e6572206e6f7220617070726f76656420666f7220616c6c00000000000000006020830152604082019050919050565b6000612b23602a836137a6565b91507f4552433732313a2062616c616e636520717565727920666f7220746865207a6560008301527f726f2061646472657373000000000000000000000000000000000000000000006020830152604082019050919050565b6000612b896029836137a6565b91507f4552433732313a206f776e657220717565727920666f72206e6f6e657869737460008301527f656e7420746f6b656e00000000000000000000000000000000000000000000006020830152604082019050919050565b6000612bef602e836137a6565b91507f45524337323155524953746f726167653a2055524920736574206f66206e6f6e60008301527f6578697374656e7420746f6b656e0000000000000000000000000000000000006020830152604082019050919050565b6000612c556002836137b7565b91507f227d0000000000000000000000000000000000000000000000000000000000006000830152600282019050919050565b6000612c956020836137a6565b91507f4552433732313a206d696e7420746f20746865207a65726f20616464726573736000830152602082019050919050565b6000612cd56031836137a6565b91507f45524337323155524953746f726167653a2055524920717565727920666f722060008301527f6e6f6e6578697374656e7420746f6b656e0000000000000000000000000000006020830152604082019050919050565b6000612d3b602c836137a6565b91507f4552433732313a20617070726f76656420717565727920666f72206e6f6e657860008301527f697374656e7420746f6b656e00000000000000000000000000000000000000006020830152604082019050919050565b6000612da16029836137a6565b91507f4552433732313a207472616e73666572206f6620746f6b656e2074686174206960008301527f73206e6f74206f776e00000000000000000000000000000000000000000000006020830152604082019050919050565b6000612e07602f836137a6565b91507f4552433732314d657461646174613a2055524920717565727920666f72206e6f60008301527f6e6578697374656e7420746f6b656e00000000000000000000000000000000006020830152604082019050919050565b6000612e6d600a836137b7565b91507f7b226e616d65223a2022000000000000000000000000000000000000000000006000830152600a82019050919050565b6000612ead6006836137b7565b91507f446f6720232000000000000000000000000000000000000000000000000000006000830152600682019050919050565b6000612eed6021836137a6565b91507f4552433732313a20617070726f76616c20746f2063757272656e74206f776e6560008301527f72000000000000000000000000000000000000000000000000000000000000006020830152604082019050919050565b6000612f53600a836137b7565b91507f46495253545f574f5244000000000000000000000000000000000000000000006000830152600a82019050919050565b6000612f93601d836137b7565b91507f646174613a6170706c69636174696f6e2f6a736f6e3b6261736536342c0000006000830152601d82019050919050565b6000612fd3600d836137b7565b91507f222f3e3c2f673e3c2f7376673e000000000000000000000000000000000000006000830152600d82019050919050565b60006130136031836137a6565b91507f4552433732313a207472616e736665722063616c6c6572206973206e6f74206f60008301527f776e6572206e6f7220617070726f7665640000000000000000000000000000006020830152604082019050919050565b6000613079605a836137b7565b91507f222c20226465736372697074696f6e223a20224120636f6c6c656374696f6e2060008301527f6f6620446f67732077697468205374796c652e222c2022696d616765223a202260208301527f646174613a696d6167652f7376672b786d6c3b6261736536342c0000000000006040830152605a82019050919050565b61310181613941565b82525050565b60006131138284612768565b915081905092915050565b600061312a8285612768565b91506131368284612768565b91508190509392505050565b600061314e8286612768565b915061315a8285612768565b91506131668284612768565b9150819050949350505050565b600061317f828d612799565b915061318b828c612768565b9150613197828b612799565b91506131a3828a612768565b91506131af8289612799565b91506131bb8288612768565b91506131c78287612799565b91506131d38286612768565b91506131df8285612799565b91506131eb8284612768565b91508190509b9a5050505050505050505050565b600061320b828f612799565b9150613217828e612768565b9150613223828d612799565b915061322f828c612768565b915061323b828b612799565b9150613247828a612768565b91506132538289612799565b915061325f8288612768565b915061326b8287612799565b91506132778286612768565b91506132838285612799565b915061328f8284612768565b91508190509d9c50505050505050505050505050565b60006132b18285612799565b91506132bd8284612768565b91506132c882612fc6565b91508190509392505050565b60006132df82612818565b91506132eb8284612768565b915081905092915050565b600061330182612a0a565b915061330d8284612768565b915081905092915050565b600061332382612e60565b915061332f8285612768565b915061333a8261306c565b91506133468284612768565b915061335182612c48565b91508190509392505050565b600061336882612ea0565b91506133748284612768565b915081905092915050565b600061338a82612f46565b91506133968284612768565b915081905092915050565b60006133ac82612f86565b91506133b88284612768565b915081905092915050565b60006020820190506133d860008301846126d8565b92915050565b60006080820190506133f360008301876126d8565b61340060208301866126d8565b61340d60408301856130f8565b818103606083015261341f81846126f6565b905095945050505050565b600060408201905061343f60008301856126d8565b61344c60208301846130f8565b9392505050565b600060208201905061346860008301846126e7565b92915050565b60006020820190508181036000830152613488818461272f565b905092915050565b600060608201905081810360008301526134aa818661272f565b90506134b960208301856130f8565b6134c660408301846126d8565b949350505050565b600060208201905081810360008301526134e781612858565b9050919050565b60006020820190508181036000830152613507816128be565b9050919050565b6000602082019050818103600083015261352781612924565b9050919050565b6000602082019050818103600083015261354781612964565b9050919050565b60006020820190508181036000830152613567816129ca565b9050919050565b6000602082019050818103600083015261358781612a4a565b9050919050565b600060208201905081810360008301526135a781612ab0565b9050919050565b600060208201905081810360008301526135c781612b16565b9050919050565b600060208201905081810360008301526135e781612b7c565b9050919050565b6000602082019050818103600083015261360781612be2565b9050919050565b6000602082019050818103600083015261362781612c88565b9050919050565b6000602082019050818103600083015261364781612cc8565b9050919050565b6000602082019050818103600083015261366781612d2e565b9050919050565b6000602082019050818103600083015261368781612d94565b9050919050565b600060208201905081810360008301526136a781612dfa565b9050919050565b600060208201905081810360008301526136c781612ee0565b9050919050565b600060208201905081810360008301526136e781613006565b9050919050565b600060208201905061370360008301846130f8565b92915050565b6000604051905081810181811067ffffffffffffffff821117156137305761372f613ac6565b5b8060405250919050565b600067ffffffffffffffff82111561375557613754613ac6565b5b601f19601f8301169050602081019050919050565b60008190508160005260206000209050919050565b600081519050919050565b600081519050919050565b600082825260208201905092915050565b600082825260208201905092915050565b600081905092915050565b60006137cd82613941565b91506137d883613941565b9250827fffffffffffffffffffffffffffffffffffffffffffffffffffffffffffffffff0382111561380d5761380c613a39565b5b828201905092915050565b600061382382613941565b915061382e83613941565b92508261383e5761383d613a68565b5b828204905092915050565b600061385482613941565b915061385f83613941565b9250817fffffffffffffffffffffffffffffffffffffffffffffffffffffffffffffffff048311821515161561389857613897613a39565b5b828202905092915050565b60006138ae82613941565b91506138b983613941565b9250828210156138cc576138cb613a39565b5b828203905092915050565b60006138e282613921565b9050919050565b60008115159050919050565b60007fffffffff0000000000000000000000000000000000000000000000000000000082169050919050565b600073ffffffffffffffffffffffffffffffffffffffff82169050919050565b6000819050919050565b82818337600083830152505050565b60005b8381101561397857808201518184015260208101905061395d565b83811115613987576000848401525b50505050565b600060028204905060018216806139a557607f821691505b602082108114156139b9576139b8613a97565b5b50919050565b60006139ca82613941565b91507fffffffffffffffffffffffffffffffffffffffffffffffffffffffffffffffff8214156139fd576139fc613a39565b5b600182019050919050565b6000613a1382613941565b9150613a1e83613941565b925082613a2e57613a2d613a68565b5b828206905092915050565b7f4e487b7100000000000000000000000000000000000000000000000000000000600052601160045260246000fd5b7f4e487b7100000000000000000000000000000000000000000000000000000000600052601260045260246000fd5b7f4e487b7100000000000000000000000000000000000000000000000000000000600052602260045260246000fd5b7f4e487b7100000000000000000000000000000000000000000000000000000000600052604160045260246000fd5b6000601f19601f8301169050919050565b613b0f816138d7565b8114613b1a57600080fd5b50565b613b26816138e9565b8114613b3157600080fd5b50565b613b3d816138f5565b8114613b4857600080fd5b50565b613b5481613941565b8114613b5f57600080fd5b5056fe416e204e465420772f20494420257320686173206265656e206d696e74656420746f2025734142434445464748494a4b4c4d4e4f505152535455565758595a6162636465666768696a6b6c6d6e6f707172737475767778797a303132333435363738392b2fa2646970667358221220be7be6e9dcf625572df66eb6d8699f3a75f0a0595215daaaaed349843ec72fc364736f6c63430008000033222f3e3c7061746820643d224d3230322e332c3636362e393634732e3232382c362e3839312c302c31332e382c312e3838362c392e3535322c352e3831362c392e353532563636362e3036385a222066696c6c3d2223663337373737222f3e3c7061746820643d224d3230382e3130372c3636342e39333361372e3336312c372e3336312c302c302c312d322e3032392c352e313538632d322e332c322e3637332d322e3135382c352e3637372d362e3539312c342e373239732d362e36352d392e3331342d342e3135362d31342e3832382c322e3231352d31302e3634362c352e3734382d31352e3439322c352e3437332d382e34392c352e3437332d31372e3534322d31302e3435362d31392e3536392c312e3536342d32305a222066696c6c3d22222f3e3c7061746820643d224d3231332e3931382c3636362e393634732d2e3232372c362e3839312c302c31332e382d312e3838352c392e3535322d352e3831362c392e353532563636362e3036385a222066696c6c3d2223663337373737222f3e3c7061746820643d224d3230382e3131322c3636342e39333361372e3336332c372e3336332c302c302c302c322e3032382c352e31353863322e332c322e3637332c322e3135382c352e3637372c362e3539312c342e37323973362e36352d392e3331342c342e3135362d31342e3832382d322e3231352d31302e3634362d352e3734382d31352e3439322d352e3437332d382e34392d352e3437332d31372e3534322c31302e3435362d31392e3536392d312e3536342d32305a222066696c6c3d22222f3e3c7061746820643d224d3139352e3631312c3639352e36343663312e3632392d31302e3938342e3730362d32362e3633332c312e3037352d33322e323631732d332e3237332d32312e3432392d332e3339312d32342e383839632d2e3031332d2e33372d2e3035372d2e3838322d2e3132342d312e3438396c2d332e33332d312e36303773322e3136352c31352e3532322c322e3434322c32352e313237632e3235332c382e3735312c322e3334332c33332e3434392e3631382c33392e39363941362e39332c362e39332c302c302c302c3139352e3631312c3639352e3634365a222066696c6c3d22222f3e3c7061746820643d224d3232302e3630372c3639352e363436632d312e3632392d31302e3938342d2e3730352d32362e3633332d312e3037352d33322e32363173332e3237332d32312e3432392c332e3339312d32342e383839632e3031332d2e33372e3035382d2e3838322e3132342d312e3438396c332e33332d312e363037732d322e3136352c31352e3532322d322e3434322c32352e313237632d2e3235332c382e3735312d322e3334332c33332e3434392d2e3631382c33392e39363941362e39332c362e39332c302c302c312c3232302e3630372c3639352e3634365a222066696c6c3d22222f3e3c7061746820643d224d3230382e3130372c3635362e32732d372e3032382d2e3735332d372e3032382c322e34312c332e3936362c362e3332342c372e3032382c362e3332345a222066696c6c3d2223346333383364222f3e3c7061746820643d224d3230342e3539332c3636322e333733732d322e3736312d322e35362d2e3935342d322e3731533230372e3537322c3636342e3036342c3230342e3539332c3636322e3337335a222066696c6c3d2223336432613265222f3e3c7061746820643d224d3139332e3638342c3632342e383435632e3437362e3334342c352e3035312d322e3431312c362e3333342d322e32383573312e3739322c322e3334382c322e332c322e362d2e3036332d322e3931392d312e3230352d342e3132352d312e39372e3139312d332e36352c312e3237533139322e3938342c3632342e3333372c3139332e3638342c3632342e3834355a222066696c6c3d22222f3e3c7061746820643d224d3231352e352c3632392e353035632e31382d342e3339332c312e3738362d332e3737322c332e3634392d322e3430382e3934342e3639312c322e3632372c312e3630352c322e3834362c322e343038732d312e3533332c312e3533322d332e3234382c312e353332433231352e3836362c3633312e3033372c3231352e3436342c3633302e342c3231352e352c3632392e3530355a222066696c6c3d2223663566316462222f3e3c6720636c69702d706174683d2275726c28236229223e3c656c6c697073652063783d22322e333635222063793d22322e343339222066696c6c3d2223613035313332222072783d22322e333635222072793d22322e34333922207472616e73666f726d3d227472616e736c617465283231352e393839203632362e30353929222f3e3c656c6c697073652063783d22312e343238222063793d22312e343732222066696c6c3d2223336432613265222072783d22312e343238222072793d22312e34373222207472616e73666f726d3d227472616e736c617465283231362e393236203632372e30323529222f3e3c656c6c697073652063783d22302e343431222063793d22302e343534222066696c6c3d2223666266636663222072783d22302e343431222072793d22302e34353422207472616e73666f726d3d227472616e736c617465283231392e3034203632372e31393429222f3e3c2f673e3c7061746820643d224d3230382e312c3635312e38343663332e3634322c302c372e3230382c352e3630362c372e3033372c362e373633732d372e3033372c312e3338332d372e3033372c312e3338335a222066696c6c3d22222f3e3c7061746820643d224d3230302e3731372c3632392e353035632d2e31382d342e3339332d312e3738362d332e3737322d332e3634392d322e3430382d2e3934342e3639312d322e3632372c312e3630352d322e3834362c322e34303873312e3533332c312e3533322c332e3234382c312e353332433230302e3335322c3633312e3033372c3230302e3735342c3633302e342c3230302e3731372c3632392e3530355a222066696c6c3d2223663566316462222f3e3c6720636c69702d706174683d2275726c28236129223e3c656c6c697073652063783d22322e333635222063793d22322e343339222066696c6c3d2223613035313332222072783d22322e333635222072793d22322e34333922207472616e73666f726d3d227472616e736c617465283139352e35203632362e30353929222f3e3c656c6c697073652063783d22312e343238222063793d22312e343732222066696c6c3d2223336432613265222072783d22312e343238222072793d22312e34373222207472616e73666f726d3d227472616e736c617465283139362e343337203632372e30323529222f3e3c656c6c697073652063783d22302e343431222063793d22302e343534222066696c6c3d2223666266636663222072783d22302e343431222072793d22302e34353422207472616e73666f726d3d227472616e736c617465283139362e323936203632372e31393429222f3e3c2f673e3c7061746820643d224d3230382e3131362c3635312e383436632d332e3634322c302d372e3230382c352e3630362d372e3033372c362e37363373372e3033372c312e3338332c372e3033372c312e3338335a222066696c6c3d22222f3e3c7061746820643d224d3230382e3130372c3630352e383632632d31312e3336332c302d31342e37362c352e3436332d31362e3836342c392e393331732d332e3237322c31302e38342d332e3237322c31372e3037342c322e332c362e3531332c342e38392c31382e39312c322e3236352c32302e3537312c362e33312c32312e3831386133342e3932372c33342e3932372c302c302c302c382e3933362c312e3232355a222066696c6c3d22222f3e3c7061746820643d224d3232352e3831322c3631392e3830386131362e3432352c31362e3432352c302c302c312c342e3234392c372e313563312e3437372c342e3735352c362e312c31312e3735372c392e30352c31382e383736732e3932342c32302e31332e3535342c32352e3037372c342e3938382c31352e3437352c322e3033322c32322e3836342d31392e3436312c31322e3835342d32312e30392c312e3837312d2e3730352d32362e3633332d312e3037352d33322e3236312c332e3237332d32312e3432392c332e3339312d32342e383839533232352e3831322c3631392e3830382c3232352e3831322c3631392e3830385a222066696c6c3d22222f3e3c7061746820643d224d3230382e3131322c3635362e3273372e3032372d2e3735332c372e3032372c322e34312d332e3936352c362e3332342d372e3032372c362e3332345a222066696c6c3d2223346333383364222f3e3c7061746820643d224d3231312e3632352c3636322e33373373322e3736312d322e35362e3935342d322e3731533230382e3634372c3636342e3036342c3231312e3632352c3636322e3337335a222066696c6c3d2223336432613265222f3e3c7061746820643d224d3232322e3533342c3632342e383435632d2e3437352e3334342d352e30352d322e3431312d362e3333342d322e323835732d312e3739312c322e3334382d322e332c322e362e3036332d322e3931392c312e3230362d342e3132352c312e3936392e3139312c332e36352c312e3237533232332e3233352c3632342e3333372c3232322e3533342c3632342e3834355a222066696c6c3d223c737667206865696768743d223230307078222076696577426f783d222d3236202d31322031323020313230222077696474683d2232303070782220786d6c6e733d22687474703a2f2f7777772e77332e6f72672f323030302f7376672220786d6c6e733a786c696e6b3d22687474703a2f2f7777772e77332e6f72672f313939392f786c696e6b223e3c646566733e3c636c6970506174682069643d2261223e3c7061746820643d224d3230302e3731372c3632392e353035632d2e31382d342e3339332d312e3738362d332e3737322d332e3634392d322e3430382d2e3934342e3639312d322e3632372c312e3630352d322e3834362c322e34303873312e3533332c312e3533322c332e3234382c312e353332433230302e3335322c3633312e3033372c3230302e3735342c3633302e342c3230302e3731372c3632392e3530355a222066696c6c3d226e6f6e65222f3e3c2f636c6970506174683e3c636c6970506174682069643d2262223e3c7061746820643d224d3231352e352c3632392e353035632e31382d342e3339332c312e3738362d332e3737322c332e3634392d322e3430382e3934342e3639312c322e3632372c312e3630352c322e3834362c322e343038732d312e3533332c312e3533322d332e3234382c312e353332433231352e3836362c3633312e3033372c3231352e3436342c3633302e342c3231352e352c3632392e3530355a222066696c6c3d226e6f6e65222f3e3c2f636c6970506174683e3c2f646566733e3c67207472616e73666f726d3d227472616e736c617465282d3137332e363238202d3630352e38363229223e3c7061746820643d224d3139302e3430362c3631392e3830386131362e3431382c31362e3431382c302c302c302d342e3234382c372e3135632d312e3437382c342e3735352d362e312c31312e3735372d392e3035312c31382e383736732d2e3932342c32302e31332d2e3535342c32352e3037372d342e3938372c31352e3437352d322e3033322c32322e3836342c31392e3436312c31322e3835342c32312e30392c312e3837312e3730362d32362e3633332c312e3037352d33322e3236312d332e3237332d32312e3432392d332e3339312d32342e383839533139302e3430362c3631392e3830382c3139302e3430362c3631392e3830385a222066696c6c3d22222f3e3c7061746820643d224d3230382e3131322c3630352e3836326331312e3336322c302c31342e37362c352e3436332c31362e3836332c392e39333173332e3237322c31302e38342c332e3237322c31372e3037342d322e332c362e3531332d342e38392c31382e39312d322e3236352c32302e3537312d362e33312c32312e3831386133342e3931372c33342e3931372c302c302c312d382e3933352c312e3232355a222066696c6c3d22",
  "linkReferences": {},
  "deployedLinkReferences": {}
}